:020000040000FA
:060000000AEF02F01200FD
:020006000000F8
:08000800D9CFE6FFE1CFD9FFDB
:100010008094400EE66ECDEC01F0E552FE0EDBCF93
:10002000E6FFCDEC01F0E552FD0EDBCFE6FFCDECB7
:1000300001F0E5528084E552E7CFD9FF1200D9CF15
:10004000E6FFE1CFD9FF8094400EE66ECDEC01F0E3
:10005000E552FE0EDBCFE6FFCDEC01F0E552FD0EE2
:10006000DBCFE6FFCDEC01F0E5528084E552E7CF2F
:10007000D9FF1200D9CFE6FFE1CFD9FFE66A120E11
:10008000E66EC2DFE552E552E66A18EC02F0E55290
:10009000FE0EDBCFE6FF130EE66EB6DFE552E5524D
:1000A000E66A18EC02F0E552400EE66E120EE66EBD
:1000B000ABDFE552E552E66A18EC02F0E552E66A7B
:1000C000120EE66EA1DFE552E552E66A18EC02F088
:1000D000E552E552E7CFD9FF1200D9CFE6FFE1CFD5
:1000E000D9FF800EE66E120EE66E8EDFE552E55207
:1000F000E66A18EC02F0E552FE0EDBCFE6FF130EC7
:10010000E66E82DFE552E552C00EE66E120EE66E36
:100110007BDFE552E552E66A18EC02F0E552E66A4A
:10012000120EE66E71DFE552E552E66A18EC02F057
:10013000E552E552E7CFD9FF1200D9CFE6FFE1CF74
:10014000D9FFFE0EDB50800FE66E94DFE552E552DC
:10015000E7CFD9FF1200D9CFE6FFE1CFD9FFFD0EDF
:10016000DBCFF6FFFE0EDBCFF7FF0800F5500FE008
:10017000FD0EDBCFF6FFDB2AFE0EDBCFF7FF01E340
:10018000DB2A0800F550E66EA8DFE552E8D7E55215
:10019000E7CFD9FF120092948084800EE66E020EA3
:1001A000E66EE66E9BEC01F0E552E552E552E66A3A
:1001B000010EE66E44DFE552E552E66AE66A3FDF8D
:1001C000E552E552E66AE66A1FDFE552E5523F0E68
:1001D000E66E50DFE5520F0EE66E4CDFE552010E83
:1001E000E66E48DFE552060EE66E44DFE552120089
:1001F000CBEC00F0050EE66E040EE66EABEC00F004
:10020000E552E552400EE66E9DEC00F0E552410EDF
:10021000E66E6DEC00F0E552530EE66E6DEC00F00C
:10022000E552530EE66E6DEC00F0E552490EE66EB7
:100230006DEC00F0E552470EE66E6DEC00F0E55215
:100240004E0EE66E6DEC00F0E5524D0EE66E6DEC76
:1002500000F0E552450EE66E6DEC00F0E5524E0EF4
:10026000E66E6DEC00F0E552540EE66E6DEC00F0BB
:10027000E5525F0EE66E6DEC00F0E552E66A9DEC2D
:1002800000F0E552F60EE66E030EE66EABEC00F003
:08029000E552E552FFD7120010
:08029800060EF66E000EF76E73
:1002A000000EF86E0F010900F550056F0900F550BA
:1002B000066F03E1056701D03DD00900F550006FDE
:1002C0000900F550016F0900F550026F090009009F
:1002D000F550E96E0900F550EA6E090009000900C1
:1002E000F550036F0900F550046F09000900F6CFBF
:1002F00007FFF7CF08FFF8CF09FF00CFF6FF01CFC8
:10030000F7FF02CFF8FF0F01035302E1045307E0A8
:100310000900F550EE6E0307F8E20407F9D707CF9E
:10032000F6FF08CFF7FF09CFF8FF0F010507000E12
:06033000065BBFD71200BE
:0A033600D9CFE6FFDACFE6FFE1CFF2
:10034000D9FFE2CFDAFF3F0EC716C66AFD0EDB50BB
:10035000C612FB0EDB50C712FC0EDB50030A09E08D
:10036000010A04E0020A06E1C78C04D0C78CC688E3
:1003700001D0C688FD0EDB50050A03E0010A03E147
:10038000978E948601D094969488949AC68AE55262
:0A039000E5CFDAFFE7CFD9FF120036
:06039A00D9CFE6FFDACF27
:1003A000E6FFE1CFD9FFE2CFDAFFE652C950DF6EB8
:1003B0009E96C69EFD0EDB50C96EC6AE02D0FF0EE5
:1003C00003D09EA6FED7000EE552E552E5CFDAFF38
:0603D000E7CFD9FF120087
:0A03D600600EF36E00EE00F00F0E53
:1003E00001D81200EA6002D0EE6AFCD7F350E9604F
:0603F0001200EE6AFCD7CA
:0A03F600416C6C2041626F757420A9
:10040000596F752100416C6C2041626F7574204DED
:0304100065210063
:0C0414001EEE00F02EEE00F0F86A019CD5
:100420004CEC01F023EC02F0F8EC00F0FBD71200EA
:10043000FF0EE350E84E1200000000D000D000D0C4
:06044000E82EFAD71200BD
:020446001200A2
:020000040030CA
:0100010002FC
:010003001EDE
:00000001FF
