:020000040000FA
:06000000DFEF01F0120029
:020006000000F8
:0800080092948084800EE66EE4
:10001000020EE66EE66E7FEC01F0E552E552E55227
:10002000E66A010EE66E70D8E552E552E66AE66AC7
:100030006BD8E552E552E66AE66A4BD8E552E552DE
:100040003F0EE66E7CD8E5520F0EE66E78D8E5528C
:10005000010EE66E74D8E552060EE66E70D8E552D3
:10006000F00EE66E030EE66EDBD8E552E552400E6A
:10007000E66EC8D8E552530EE66E94D8E552500E9F
:10008000E66E90D8E552490EE66E8CD8E552200E09
:10009000E66E88D8E5524C0EE66E84D8E552690EBD
:1000A000E66E80D8E552620EE66E7CD8E552720E9E
:1000B000E66E78D8E552610EE66E74D8E552720E9F
:1000C000E66E70D8E552790EE66E6CD8E552FFD731
:1000D0001200D9CFE6FFE1CFD9FF8094400EE66E43
:1000E000B1EC01F0E552FE0EDBCFE6FFB1EC01F022
:1000F000E552FD0EDBCFE6FFB1EC01F0E552808466
:10010000E552E7CFD9FF1200D9CFE6FFE1CFD9FF03
:100110008094400EE66EB1EC01F0E552FE0EDBCFAE
:10012000E6FFB1EC01F0E552FD0EDBCFE6FFB1ECEE
:1001300001F0E5528084E552E7CFD9FF1200D9CF14
:10014000E6FFE1CFD9FFE66A120EE66EC2DFE552A6
:10015000E552E66AEDEC01F0E552FE0EDBCFE6FF7C
:10016000130EE66EB6DFE552E552E66AEDEC01F0FD
:10017000E552400EE66E120EE66EABDFE552E5523A
:10018000E66AEDEC01F0E552E66A120EE66EA1DFDA
:10019000E552E552E66AEDEC01F0E552E552E7CFB3
:1001A000D9FF1200D9CFE6FFE1CFD9FF800EE66E6E
:1001B000120EE66E8EDFE552E552E66AEDEC01F0D6
:1001C000E552FE0EDBCFE6FF130EE66E82DFE55250
:1001D000E552C00EE66E120EE66E7BDFE552E5528A
:1001E000E66AEDEC01F0E552E66A120EE66E71DFAA
:1001F000E552E552E66AEDEC01F0E552E552E7CF53
:10020000D9FF1200D9CFE6FFE1CFD9FFFE0EDB50B8
:10021000800FE66E94DFE552E552E7CFD9FF12007A
:10022000D9CFE6FFE1CFD9FFFD0EDBCFF6FFFE0E03
:10023000DBCFF7FF0800F5500FE0FD0EDBCFF6FF38
:10024000DB2AFE0EDBCFF7FF01E3DB2A0800F550C7
:10025000E66EA8DFE552E8D7E552E7CFD9FF1200F6
:10026000060EF66E000EF76E000EF86E0F01090016
:10027000F550056F0900F550066F03E1056701D0E1
:100280003DD00900F550006F0900F550016F0900DD
:10029000F550026F09000900F550E96E0900F550AC
:1002A000EA6E090009000900F550036F0900F550D6
:1002B000046F09000900F6CF07FFF7CF08FFF8CF5A
:1002C00009FF00CFF6FF01CFF7FF02CFF8FF0F01C4
:1002D000035302E1045307E00900F550EE6E0307F3
:1002E000F8E20407F9D707CFF6FF08CFF7FF09CFE9
:0E02F000F8FF0F010507000E065BBFD71200D6
:0202FE00D9CF56
:10030000E6FFDACFE6FFE1CFD9FFE2CFDAFF3F0E1B
:10031000C716C66AFD0EDB50C612FB0EDB50C712B5
:10032000FC0EDB50030A09E0010A04E0020A06E1C0
:10033000C78C04D0C78CC68801D0C688FD0EDB50A0
:10034000050A03E0010A03E1978E948601D0949692
:100350009488949AC68AE552E5CFDAFFE7CFD9FFB1
:02036000120089
:0E036200D9CFE6FFDACFE6FFE1CFD9FFE2CF39
:10037000DAFFE652C950DF6E9E96C69EFD0EDB5038
:10038000C96EC6AE02D0FF0E03D09EA6FED7000EE9
:0E039000E552E552E5CFDAFFE7CFD9FF1200C4
:02039E00600EEF
:1003A000F36E00EE00F00F0E01D81200EA6002D0EA
:0E03B000EE6AFCD7F350E9601200EE6AFCD74B
:0203BE001EEE31
:1003C00000F02EEE00F0F86A019C30EC01F000EC39
:0A03D00002F004EC00F0FBD712006D
:0603DA00FF0EE350E84EA7
:1003E0001200000000D000D000D0E82EFAD7120092
:0F03F000416C6C41626F757445452E636F6D00F3
:020400001200E8
:020000040030CA
:0100010002FC
:010003001EDE
:00000001FF
